{
  "contractName": "KernelStorage",
  "abi": [
    {
      "constant": true,
      "inputs": [
        {
          "name": "",
          "type": "bytes32"
        },
        {
          "name": "",
          "type": "bytes32"
        }
      ],
      "name": "apps",
      "outputs": [
        {
          "name": "",
          "type": "address"
        }
      ],
      "payable": false,
      "stateMutability": "view",
      "type": "function"
    },
    {
      "constant": true,
      "inputs": [],
      "name": "recoveryVaultAppId",
      "outputs": [
        {
          "name": "",
          "type": "bytes32"
        }
      ],
      "payable": false,
      "stateMutability": "view",
      "type": "function"
    }
  ],
  "bytecode": "0x608060405234801561001057600080fd5b50610114806100206000396000f30060806040526004361060485763ffffffff7c01000000000000000000000000000000000000000000000000000000006000350416634558850c8114604d57806386070cfe14608e575b600080fd5b348015605857600080fd5b50606560043560243560b2565b6040805173ffffffffffffffffffffffffffffffffffffffff9092168252519081900360200190f35b348015609957600080fd5b5060a060e2565b60408051918252519081900360200190f35b600060208181529281526040808220909352908152205473ffffffffffffffffffffffffffffffffffffffff1681565b600154815600a165627a7a72305820b7afcbfed4927ccc0cd2d05141555536f70cdffa6a0126e343f89727af3e6ecb0029",
  "source": "pragma solidity 0.4.24;\n\n\ncontract KernelStorage {\n    // namespace => app id => address\n    mapping (bytes32 => mapping (bytes32 => address)) public apps;\n    bytes32 public recoveryVaultAppId;\n}\n",
  "sourcePath": "@aragon/os/contracts/kernel/KernelStorage.sol",
  "compiler": {
    "name": "solc",
    "version": "0.4.24+commit.e67f0147.Emscripten.clang"
  },
  "schemaVersion": "3.0.20",
  "updatedAt": "2020-01-14T03:46:15.220Z",
  "devdoc": {
    "methods": {}
  },
  "userdoc": {
    "methods": {}
  }
}